{
  "address": "0xFB1FF20107a62fE550d83ACa4E4Bf460dD77a944",
  "abi": [
    {
      "inputs": [
        {
          "internalType": "address",
          "name": "_owner",
          "type": "address"
        }
      ],
      "stateMutability": "nonpayable",
      "type": "constructor"
    },
    {
      "inputs": [],
      "name": "EnforcedPause",
      "type": "error"
    },
    {
      "inputs": [],
      "name": "ExpectedPause",
      "type": "error"
    },
    {
      "inputs": [
        {
          "internalType": "address",
          "name": "owner",
          "type": "address"
        }
      ],
      "name": "OwnableInvalidOwner",
      "type": "error"
    },
    {
      "inputs": [
        {
          "internalType": "address",
          "name": "account",
          "type": "address"
        }
      ],
      "name": "OwnableUnauthorizedAccount",
      "type": "error"
    },
    {
      "anonymous": false,
      "inputs": [
        {
          "indexed": true,
          "internalType": "address",
          "name": "issuer",
          "type": "address"
        },
        {
          "indexed": false,
          "internalType": "string",
          "name": "name",
          "type": "string"
        },
        {
          "indexed": false,
          "internalType": "string",
          "name": "organization",
          "type": "string"
        },
        {
          "indexed": false,
          "internalType": "uint256",
          "name": "timestamp",
          "type": "uint256"
        }
      ],
      "name": "IssuerAdded",
      "type": "event"
    },
    {
      "anonymous": false,
      "inputs": [
        {
          "indexed": true,
          "internalType": "address",
          "name": "issuer",
          "type": "address"
        },
        {
          "indexed": false,
          "internalType": "uint256",
          "name": "timestamp",
          "type": "uint256"
        }
      ],
      "name": "IssuerRemoved",
      "type": "event"
    },
    {
      "anonymous": false,
      "inputs": [
        {
          "indexed": true,
          "internalType": "address",
          "name": "issuer",
          "type": "address"
        },
        {
          "indexed": false,
          "internalType": "string",
          "name": "name",
          "type": "string"
        },
        {
          "indexed": false,
          "internalType": "string",
          "name": "organization",
          "type": "string"
        },
        {
          "indexed": false,
          "internalType": "uint256",
          "name": "timestamp",
          "type": "uint256"
        }
      ],
      "name": "IssuerUpdated",
      "type": "event"
    },
    {
      "anonymous": false,
      "inputs": [
        {
          "indexed": true,
          "internalType": "address",
          "name": "previousOwner",
          "type": "address"
        },
        {
          "indexed": true,
          "internalType": "address",
          "name": "newOwner",
          "type": "address"
        }
      ],
      "name": "OwnershipTransferred",
      "type": "event"
    },
    {
      "anonymous": false,
      "inputs": [
        {
          "indexed": false,
          "internalType": "address",
          "name": "account",
          "type": "address"
        }
      ],
      "name": "Paused",
      "type": "event"
    },
    {
      "anonymous": false,
      "inputs": [
        {
          "indexed": false,
          "internalType": "address",
          "name": "account",
          "type": "address"
        }
      ],
      "name": "Unpaused",
      "type": "event"
    },
    {
      "inputs": [
        {
          "internalType": "address",
          "name": "issuer",
          "type": "address"
        },
        {
          "internalType": "string",
          "name": "name",
          "type": "string"
        },
        {
          "internalType": "string",
          "name": "organization",
          "type": "string"
        }
      ],
      "name": "addIssuer",
      "outputs": [],
      "stateMutability": "nonpayable",
      "type": "function"
    },
    {
      "inputs": [],
      "name": "getAllIssuers",
      "outputs": [
        {
          "internalType": "address[]",
          "name": "",
          "type": "address[]"
        }
      ],
      "stateMutability": "view",
      "type": "function"
    },
    {
      "inputs": [],
      "name": "getAuthorizedIssuerCount",
      "outputs": [
        {
          "internalType": "uint256",
          "name": "",
          "type": "uint256"
        }
      ],
      "stateMutability": "view",
      "type": "function"
    },
    {
      "inputs": [
        {
          "internalType": "address",
          "name": "issuer",
          "type": "address"
        }
      ],
      "name": "getIssuerInfo",
      "outputs": [
        {
          "components": [
            {
              "internalType": "string",
              "name": "name",
              "type": "string"
            },
            {
              "internalType": "string",
              "name": "organization",
              "type": "string"
            },
            {
              "internalType": "bool",
              "name": "authorized",
              "type": "bool"
            },
            {
              "internalType": "uint256",
              "name": "addedAt",
              "type": "uint256"
            }
          ],
          "internalType": "struct IssuerRegistry.IssuerInfo",
          "name": "",
          "type": "tuple"
        }
      ],
      "stateMutability": "view",
      "type": "function"
    },
    {
      "inputs": [
        {
          "internalType": "address",
          "name": "issuer",
          "type": "address"
        }
      ],
      "name": "isAuthorizedIssuer",
      "outputs": [
        {
          "internalType": "bool",
          "name": "",
          "type": "bool"
        }
      ],
      "stateMutability": "view",
      "type": "function"
    },
    {
      "inputs": [
        {
          "internalType": "uint256",
          "name": "",
          "type": "uint256"
        }
      ],
      "name": "issuerAddresses",
      "outputs": [
        {
          "internalType": "address",
          "name": "",
          "type": "address"
        }
      ],
      "stateMutability": "view",
      "type": "function"
    },
    {
      "inputs": [],
      "name": "owner",
      "outputs": [
        {
          "internalType": "address",
          "name": "",
          "type": "address"
        }
      ],
      "stateMutability": "view",
      "type": "function"
    },
    {
      "inputs": [],
      "name": "pause",
      "outputs": [],
      "stateMutability": "nonpayable",
      "type": "function"
    },
    {
      "inputs": [],
      "name": "paused",
      "outputs": [
        {
          "internalType": "bool",
          "name": "",
          "type": "bool"
        }
      ],
      "stateMutability": "view",
      "type": "function"
    },
    {
      "inputs": [
        {
          "internalType": "address",
          "name": "issuer",
          "type": "address"
        }
      ],
      "name": "removeIssuer",
      "outputs": [],
      "stateMutability": "nonpayable",
      "type": "function"
    },
    {
      "inputs": [],
      "name": "renounceOwnership",
      "outputs": [],
      "stateMutability": "nonpayable",
      "type": "function"
    },
    {
      "inputs": [
        {
          "internalType": "address",
          "name": "newOwner",
          "type": "address"
        }
      ],
      "name": "transferOwnership",
      "outputs": [],
      "stateMutability": "nonpayable",
      "type": "function"
    },
    {
      "inputs": [],
      "name": "unpause",
      "outputs": [],
      "stateMutability": "nonpayable",
      "type": "function"
    },
    {
      "inputs": [
        {
          "internalType": "address",
          "name": "issuer",
          "type": "address"
        },
        {
          "internalType": "string",
          "name": "name",
          "type": "string"
        },
        {
          "internalType": "string",
          "name": "organization",
          "type": "string"
        }
      ],
      "name": "updateIssuer",
      "outputs": [],
      "stateMutability": "nonpayable",
      "type": "function"
    }
  ],
  "transactionHash": "0x66c746f7417fe151fe5bd08deb24d990b100a6e319e312afc954a1b5ab13be95",
  "args": [
    "0xd82c3510567ce848DfcAD32b7e69877C0f66D9b1"
  ],
  "numDeployments": 1,
  "solcInputHash": "3572b12dc14bcaf61ff1890999048189",
  "bytecode": "0x60806040523480156200001157600080fd5b50604051620016593803806200165983398101604081905262000034916200027a565b806001600160a01b0381166200006457604051631e4fbdf760e01b81526000600482015260240160405180910390fd5b6200006f81620000d6565b506000805460ff60a01b19169055604080518082018252600c81526b29bcb9ba32b69020b236b4b760a11b6020808301919091528251808401909352600a8352695342542053797374656d60b01b90830152620000cf9183919062000126565b506200049f565b600080546001600160a01b038381166001600160a01b0319831681178455604051919092169283917f8be0079c531659141344cd1fd0a4f28419497f9722a3daafe3b4186f6b6457e09190a35050565b60408051608081018252838152602080820184905260018284018190524260608401526001600160a01b0387166000908152915291909120815181906200016e908262000351565b506020820151600182019062000185908262000351565b5060408281015160028301805460ff19169115159190911790556060909201516003918201556001600160a01b0385166000908152602091909152205460ff166200022e576002805460018082019092557f405787fa12a823e0f2b7631cc41b3ba8828b3321ca811111fa75cd3aa3bb5ace0180546001600160a01b0319166001600160a01b0386169081179091556000908152600360205260409020805460ff191690911790555b826001600160a01b03167f2a1e6846aed5ec6606346a918a5642662454a6bb83024c1bcbd7dd4c6f1dd8848383426040516200026d9392919062000465565b60405180910390a2505050565b6000602082840312156200028d57600080fd5b81516001600160a01b0381168114620002a557600080fd5b9392505050565b634e487b7160e01b600052604160045260246000fd5b600181811c90821680620002d757607f821691505b602082108103620002f857634e487b7160e01b600052602260045260246000fd5b50919050565b601f8211156200034c57600081815260208120601f850160051c81016020861015620003275750805b601f850160051c820191505b81811015620003485782815560010162000333565b5050505b505050565b81516001600160401b038111156200036d576200036d620002ac565b62000385816200037e8454620002c2565b84620002fe565b602080601f831160018114620003bd5760008415620003a45750858301515b600019600386901b1c1916600185901b17855562000348565b600085815260208120601f198616915b82811015620003ee57888601518255948401946001909101908401620003cd565b50858210156200040d5787850151600019600388901b60f8161c191681555b5050505050600190811b01905550565b6000815180845260005b81811015620004455760208185018101518683018201520162000427565b506000602082860101526020601f19601f83011685010191505092915050565b6060815260006200047a60608301866200041d565b82810360208401526200048e81866200041d565b915050826040830152949350505050565b6111aa80620004af6000396000f3fe608060405234801561001057600080fd5b50600436106100ea5760003560e01c80635c975abb1161008c578063831459af11610066578063831459af146101f05780638456cb59146102065780638da5cb5b1461020e578063f2fde38b1461021f57600080fd5b80635c975abb146101b65780635e9aab70146101c8578063715018a6146101e857600080fd5b80633f4ba83a116100c85780633f4ba83a14610173578063451c36711461017b57806347bc70931461018e5780634c32c35c146101a157600080fd5b80631aa76b43146100ef5780632fad59911461010457806331ba196614610134575b600080fd5b6101026100fd366004610d97565b610232565b005b610117610112366004610e0b565b61031c565b6040516001600160a01b0390911681526020015b60405180910390f35b610163610142366004610e24565b6001600160a01b031660009081526001602052604090206002015460ff1690565b604051901515815260200161012b565b610102610346565b610102610189366004610d97565b610358565b61010261019c366004610e24565b6104ae565b6101a9610627565b60405161012b9190610e46565b600054600160a01b900460ff16610163565b6101db6101d6366004610e24565b6107bf565b60405161012b9190610ed9565b610102610952565b6101f8610964565b60405190815260200161012b565b6101026109e0565b6000546001600160a01b0316610117565b61010261022d366004610e24565b6109f0565b61023a610a2e565b610242610a5b565b6001600160a01b0383166102715760405162461bcd60e51b815260040161026890610f35565b60405180910390fd5b60008251116102925760405162461bcd60e51b815260040161026890610f7b565b6001600160a01b03831660009081526001602052604090206002015460ff161561030c5760405162461bcd60e51b815260206004820152602560248201527f49737375657252656769737472793a2049737375657220616c72656164792065604482015264786973747360d81b6064820152608401610268565b610317838383610a86565b505050565b6002818154811061032c57600080fd5b6000918252602090912001546001600160a01b0316905081565b61034e610a2e565b610356610bc6565b565b610360610a2e565b610368610a5b565b6001600160a01b03831661038e5760405162461bcd60e51b815260040161026890610f35565b6001600160a01b03831660009081526001602052604090206002015460ff166103f95760405162461bcd60e51b815260206004820181905260248201527f49737375657252656769737472793a20497373756572206e6f7420666f756e646044820152606401610268565b600082511161041a5760405162461bcd60e51b815260040161026890610f7b565b6001600160a01b038316600090815260016020526040902061043c8382611041565b506001600160a01b0383166000908152600160208190526040909120016104638282611041565b50826001600160a01b03167fbcc21d9c4b4590f46b181515ac40d4fad6cbd1b24440b56d137f8800a818f2f78383426040516104a193929190611101565b60405180910390a2505050565b6104b6610a2e565b6104be610a5b565b6001600160a01b0381166104e45760405162461bcd60e51b815260040161026890610f35565b6001600160a01b03811660009081526001602052604090206002015460ff1661054f5760405162461bcd60e51b815260206004820181905260248201527f49737375657252656769737472793a20497373756572206e6f7420666f756e646044820152606401610268565b6000546001600160a01b03166001600160a01b0316816001600160a01b0316036105c75760405162461bcd60e51b815260206004820152602360248201527f49737375657252656769737472793a2043616e6e6f742072656d6f7665206f776044820152623732b960e91b6064820152608401610268565b6001600160a01b03811660008181526001602052604090819020600201805460ff19169055517f7d646dfe52f77b8ef31868b9cddadbd17ee190aba7615b1c4c456bf6e5f5a2da9061061c9042815260200190565b60405180910390a250565b60606000805b60025481101561069e57600160006002838154811061064e5761064e611137565b60009182526020808320909101546001600160a01b0316835282019290925260400190206002015460ff161561068c57816106888161114d565b9250505b806106968161114d565b91505061062d565b5060008167ffffffffffffffff8111156106ba576106ba610cf4565b6040519080825280602002602001820160405280156106e3578160200160208202803683370190505b5090506000805b6002548110156107b657600160006002838154811061070b5761070b611137565b60009182526020808320909101546001600160a01b0316835282019290925260400190206002015460ff16156107a4576002818154811061074e5761074e611137565b9060005260206000200160009054906101000a90046001600160a01b031683838151811061077e5761077e611137565b6001600160a01b0390921660209283029190910190910152816107a08161114d565b9250505b806107ae8161114d565b9150506106ea565b50909392505050565b6107ec60405180608001604052806060815260200160608152602001600015158152602001600081525090565b6001600160a01b0382166000908152600160205260409081902081516080810190925280548290829061081e90610fbf565b80601f016020809104026020016040519081016040528092919081815260200182805461084a90610fbf565b80156108975780601f1061086c57610100808354040283529160200191610897565b820191906000526020600020905b81548152906001019060200180831161087a57829003601f168201915b505050505081526020016001820180546108b090610fbf565b80601f01602080910402602001604051908101604052809291908181526020018280546108dc90610fbf565b80156109295780601f106108fe57610100808354040283529160200191610929565b820191906000526020600020905b81548152906001019060200180831161090c57829003601f168201915b5050509183525050600282015460ff161515602082015260039091015460409091015292915050565b61095a610a2e565b6103566000610c1b565b600080805b6002548110156109da57600160006002838154811061098a5761098a611137565b60009182526020808320909101546001600160a01b0316835282019290925260400190206002015460ff16156109c857816109c48161114d565b9250505b806109d28161114d565b915050610969565b50919050565b6109e8610a2e565b610356610c6b565b6109f8610a2e565b6001600160a01b038116610a2257604051631e4fbdf760e01b815260006004820152602401610268565b610a2b81610c1b565b50565b6000546001600160a01b031633146103565760405163118cdaa760e01b8152336004820152602401610268565b600054600160a01b900460ff16156103565760405163d93c066560e01b815260040160405180910390fd5b60408051608081018252838152602080820184905260018284018190524260608401526001600160a01b038716600090815291529190912081518190610acc9082611041565b5060208201516001820190610ae19082611041565b5060408281015160028301805460ff19169115159190911790556060909201516003918201556001600160a01b0385166000908152602091909152205460ff16610b89576002805460018082019092557f405787fa12a823e0f2b7631cc41b3ba8828b3321ca811111fa75cd3aa3bb5ace0180546001600160a01b0319166001600160a01b0386169081179091556000908152600360205260409020805460ff191690911790555b826001600160a01b03167f2a1e6846aed5ec6606346a918a5642662454a6bb83024c1bcbd7dd4c6f1dd8848383426040516104a193929190611101565b610bce610cae565b6000805460ff60a01b191690557f5db9ee0a495bf2e6ff9c91a7834c1ba4fdd244a5e8aa4e537bd38aeae4b073aa335b6040516001600160a01b03909116815260200160405180910390a1565b600080546001600160a01b038381166001600160a01b0319831681178455604051919092169283917f8be0079c531659141344cd1fd0a4f28419497f9722a3daafe3b4186f6b6457e09190a35050565b610c73610a5b565b6000805460ff60a01b1916600160a01b1790557f62e78cea01bee320cd4e420270b5ea74000d11b0c9f74754ebdbfc544b05a258610bfe3390565b600054600160a01b900460ff1661035657604051638dfc202b60e01b815260040160405180910390fd5b80356001600160a01b0381168114610cef57600080fd5b919050565b634e487b7160e01b600052604160045260246000fd5b600082601f830112610d1b57600080fd5b813567ffffffffffffffff80821115610d3657610d36610cf4565b604051601f8301601f19908116603f01168101908282118183101715610d5e57610d5e610cf4565b81604052838152866020858801011115610d7757600080fd5b836020870160208301376000602085830101528094505050505092915050565b600080600060608486031215610dac57600080fd5b610db584610cd8565b9250602084013567ffffffffffffffff80821115610dd257600080fd5b610dde87838801610d0a565b93506040860135915080821115610df457600080fd5b50610e0186828701610d0a565b9150509250925092565b600060208284031215610e1d57600080fd5b5035919050565b600060208284031215610e3657600080fd5b610e3f82610cd8565b9392505050565b6020808252825182820181905260009190848201906040850190845b81811015610e875783516001600160a01b031683529284019291840191600101610e62565b50909695505050505050565b6000815180845260005b81811015610eb957602081850181015186830182015201610e9d565b506000602082860101526020601f19601f83011685010191505092915050565b602081526000825160806020840152610ef560a0840182610e93565b90506020840151601f19848303016040850152610f128282610e93565b915050604084015115156060840152606084015160808401528091505092915050565b60208082526026908201527f49737375657252656769737472793a20496e76616c696420697373756572206160408201526564647265737360d01b606082015260800190565b60208082526024908201527f49737375657252656769737472793a204e616d652063616e6e6f7420626520656040820152636d70747960e01b606082015260800190565b600181811c90821680610fd357607f821691505b6020821081036109da57634e487b7160e01b600052602260045260246000fd5b601f82111561031757600081815260208120601f850160051c8101602086101561101a5750805b601f850160051c820191505b8181101561103957828155600101611026565b505050505050565b815167ffffffffffffffff81111561105b5761105b610cf4565b61106f816110698454610fbf565b84610ff3565b602080601f8311600181146110a4576000841561108c5750858301515b600019600386901b1c1916600185901b178555611039565b600085815260208120601f198616915b828110156110d3578886015182559484019460019091019084016110b4565b50858210156110f15787850151600019600388901b60f8161c191681555b5050505050600190811b01905550565b6060815260006111146060830186610e93565b82810360208401526111268186610e93565b915050826040830152949350505050565b634e487b7160e01b600052603260045260246000fd5b60006001820161116d57634e487b7160e01b600052601160045260246000fd5b506001019056fea26469706673582212205a3e6ce21ec27c3100b4283b6fb395ee6256ff03946234b05f204ef7b818189a64736f6c63430008140033",
  "devdoc": {
    "author": "SBT System POC",
    "details": "Contract to manage authorized SBT issuers",
    "errors": {
      "EnforcedPause()": [
        {
          "details": "The operation failed because the contract is paused."
        }
      ],
      "ExpectedPause()": [
        {
          "details": "The operation failed because the contract is not paused."
        }
      ],
      "OwnableInvalidOwner(address)": [
        {
          "details": "The owner is not a valid owner account. (eg. `address(0)`)"
        }
      ],
      "OwnableUnauthorizedAccount(address)": [
        {
          "details": "The caller account is not authorized to perform an operation."
        }
      ]
    },
    "events": {
      "Paused(address)": {
        "details": "Emitted when the pause is triggered by `account`."
      },
      "Unpaused(address)": {
        "details": "Emitted when the pause is lifted by `account`."
      }
    },
    "kind": "dev",
    "methods": {
      "addIssuer(address,string,string)": {
        "details": "Add a new authorized issuer",
        "params": {
          "issuer": "Address of the issuer",
          "name": "Name of the issuer",
          "organization": "Organization name"
        }
      },
      "getAllIssuers()": {
        "details": "Get all authorized issuer addresses",
        "returns": {
          "_0": "address[] Array of all issuer addresses"
        }
      },
      "getAuthorizedIssuerCount()": {
        "details": "Get total count of authorized issuers",
        "returns": {
          "_0": "uint256 Count of authorized issuers"
        }
      },
      "getIssuerInfo(address)": {
        "details": "Get issuer information",
        "params": {
          "issuer": "Address of the issuer"
        },
        "returns": {
          "_0": "IssuerInfo struct containing issuer details"
        }
      },
      "isAuthorizedIssuer(address)": {
        "details": "Check if an address is an authorized issuer",
        "params": {
          "issuer": "Address to check"
        },
        "returns": {
          "_0": "bool True if authorized, false otherwise"
        }
      },
      "owner()": {
        "details": "Returns the address of the current owner."
      },
      "pause()": {
        "details": "Pause the contract"
      },
      "paused()": {
        "details": "Returns true if the contract is paused, and false otherwise."
      },
      "removeIssuer(address)": {
        "details": "Remove an authorized issuer",
        "params": {
          "issuer": "Address of the issuer to remove"
        }
      },
      "renounceOwnership()": {
        "details": "Leaves the contract without owner. It will not be possible to call `onlyOwner` functions. Can only be called by the current owner. NOTE: Renouncing ownership will leave the contract without an owner, thereby disabling any functionality that is only available to the owner."
      },
      "transferOwnership(address)": {
        "details": "Transfers ownership of the contract to a new account (`newOwner`). Can only be called by the current owner."
      },
      "unpause()": {
        "details": "Unpause the contract"
      },
      "updateIssuer(address,string,string)": {
        "details": "Update issuer information",
        "params": {
          "issuer": "Address of the issuer",
          "name": "New name",
          "organization": "New organization"
        }
      }
    },
    "title": "IssuerRegistry",
    "version": 1
  },
  "userdoc": {
    "kind": "user",
    "methods": {},
    "version": 1
  },
  "storageLayout": {
    "storage": [
      {
        "astId": 8,
        "contract": "contracts/IssuerRegistry.sol:IssuerRegistry",
        "label": "_owner",
        "offset": 0,
        "slot": "0",
        "type": "t_address"
      },
      {
        "astId": 2069,
        "contract": "contracts/IssuerRegistry.sol:IssuerRegistry",
        "label": "_paused",
        "offset": 20,
        "slot": "0",
        "type": "t_bool"
      },
      {
        "astId": 3719,
        "contract": "contracts/IssuerRegistry.sol:IssuerRegistry",
        "label": "issuers",
        "offset": 0,
        "slot": "1",
        "type": "t_mapping(t_address,t_struct(IssuerInfo)3714_storage)"
      },
      {
        "astId": 3722,
        "contract": "contracts/IssuerRegistry.sol:IssuerRegistry",
        "label": "issuerAddresses",
        "offset": 0,
        "slot": "2",
        "type": "t_array(t_address)dyn_storage"
      },
      {
        "astId": 3726,
        "contract": "contracts/IssuerRegistry.sol:IssuerRegistry",
        "label": "isInArray",
        "offset": 0,
        "slot": "3",
        "type": "t_mapping(t_address,t_bool)"
      }
    ],
    "types": {
      "t_address": {
        "encoding": "inplace",
        "label": "address",
        "numberOfBytes": "20"
      },
      "t_array(t_address)dyn_storage": {
        "base": "t_address",
        "encoding": "dynamic_array",
        "label": "address[]",
        "numberOfBytes": "32"
      },
      "t_bool": {
        "encoding": "inplace",
        "label": "bool",
        "numberOfBytes": "1"
      },
      "t_mapping(t_address,t_bool)": {
        "encoding": "mapping",
        "key": "t_address",
        "label": "mapping(address => bool)",
        "numberOfBytes": "32",
        "value": "t_bool"
      },
      "t_mapping(t_address,t_struct(IssuerInfo)3714_storage)": {
        "encoding": "mapping",
        "key": "t_address",
        "label": "mapping(address => struct IssuerRegistry.IssuerInfo)",
        "numberOfBytes": "32",
        "value": "t_struct(IssuerInfo)3714_storage"
      },
      "t_string_storage": {
        "encoding": "bytes",
        "label": "string",
        "numberOfBytes": "32"
      },
      "t_struct(IssuerInfo)3714_storage": {
        "encoding": "inplace",
        "label": "struct IssuerRegistry.IssuerInfo",
        "members": [
          {
            "astId": 3707,
            "contract": "contracts/IssuerRegistry.sol:IssuerRegistry",
            "label": "name",
            "offset": 0,
            "slot": "0",
            "type": "t_string_storage"
          },
          {
            "astId": 3709,
            "contract": "contracts/IssuerRegistry.sol:IssuerRegistry",
            "label": "organization",
            "offset": 0,
            "slot": "1",
            "type": "t_string_storage"
          },
          {
            "astId": 3711,
            "contract": "contracts/IssuerRegistry.sol:IssuerRegistry",
            "label": "authorized",
            "offset": 0,
            "slot": "2",
            "type": "t_bool"
          },
          {
            "astId": 3713,
            "contract": "contracts/IssuerRegistry.sol:IssuerRegistry",
            "label": "addedAt",
            "offset": 0,
            "slot": "3",
            "type": "t_uint256"
          }
        ],
        "numberOfBytes": "128"
      },
      "t_uint256": {
        "encoding": "inplace",
        "label": "uint256",
        "numberOfBytes": "32"
      }
    }
  }
}