{
  "address": "0x045Bef95F7FC689aDfE2B2DA1488fDC20B65cd01",
  "abi": [
    {
      "inputs": [
        {
          "internalType": "address",
          "name": "_owner",
          "type": "address"
        },
        {
          "internalType": "address",
          "name": "_issuerRegistry",
          "type": "address"
        },
        {
          "internalType": "address",
          "name": "_sbtTemplate",
          "type": "address"
        },
        {
          "internalType": "address",
          "name": "_sbtSession",
          "type": "address"
        }
      ],
      "stateMutability": "nonpayable",
      "type": "constructor"
    },
    {
      "inputs": [],
      "name": "ERC721EnumerableForbiddenBatchMint",
      "type": "error"
    },
    {
      "inputs": [
        {
          "internalType": "address",
          "name": "sender",
          "type": "address"
        },
        {
          "internalType": "uint256",
          "name": "tokenId",
          "type": "uint256"
        },
        {
          "internalType": "address",
          "name": "owner",
          "type": "address"
        }
      ],
      "name": "ERC721IncorrectOwner",
      "type": "error"
    },
    {
      "inputs": [
        {
          "internalType": "address",
          "name": "operator",
          "type": "address"
        },
        {
          "internalType": "uint256",
          "name": "tokenId",
          "type": "uint256"
        }
      ],
      "name": "ERC721InsufficientApproval",
      "type": "error"
    },
    {
      "inputs": [
        {
          "internalType": "address",
          "name": "approver",
          "type": "address"
        }
      ],
      "name": "ERC721InvalidApprover",
      "type": "error"
    },
    {
      "inputs": [
        {
          "internalType": "address",
          "name": "operator",
          "type": "address"
        }
      ],
      "name": "ERC721InvalidOperator",
      "type": "error"
    },
    {
      "inputs": [
        {
          "internalType": "address",
          "name": "owner",
          "type": "address"
        }
      ],
      "name": "ERC721InvalidOwner",
      "type": "error"
    },
    {
      "inputs": [
        {
          "internalType": "address",
          "name": "receiver",
          "type": "address"
        }
      ],
      "name": "ERC721InvalidReceiver",
      "type": "error"
    },
    {
      "inputs": [
        {
          "internalType": "address",
          "name": "sender",
          "type": "address"
        }
      ],
      "name": "ERC721InvalidSender",
      "type": "error"
    },
    {
      "inputs": [
        {
          "internalType": "uint256",
          "name": "tokenId",
          "type": "uint256"
        }
      ],
      "name": "ERC721NonexistentToken",
      "type": "error"
    },
    {
      "inputs": [
        {
          "internalType": "address",
          "name": "owner",
          "type": "address"
        },
        {
          "internalType": "uint256",
          "name": "index",
          "type": "uint256"
        }
      ],
      "name": "ERC721OutOfBoundsIndex",
      "type": "error"
    },
    {
      "inputs": [],
      "name": "EnforcedPause",
      "type": "error"
    },
    {
      "inputs": [],
      "name": "ExpectedPause",
      "type": "error"
    },
    {
      "inputs": [
        {
          "internalType": "address",
          "name": "owner",
          "type": "address"
        }
      ],
      "name": "OwnableInvalidOwner",
      "type": "error"
    },
    {
      "inputs": [
        {
          "internalType": "address",
          "name": "account",
          "type": "address"
        }
      ],
      "name": "OwnableUnauthorizedAccount",
      "type": "error"
    },
    {
      "inputs": [],
      "name": "ReentrancyGuardReentrantCall",
      "type": "error"
    },
    {
      "anonymous": false,
      "inputs": [
        {
          "indexed": true,
          "internalType": "address",
          "name": "owner",
          "type": "address"
        },
        {
          "indexed": true,
          "internalType": "address",
          "name": "approved",
          "type": "address"
        },
        {
          "indexed": true,
          "internalType": "uint256",
          "name": "tokenId",
          "type": "uint256"
        }
      ],
      "name": "Approval",
      "type": "event"
    },
    {
      "anonymous": false,
      "inputs": [
        {
          "indexed": true,
          "internalType": "address",
          "name": "owner",
          "type": "address"
        },
        {
          "indexed": true,
          "internalType": "address",
          "name": "operator",
          "type": "address"
        },
        {
          "indexed": false,
          "internalType": "bool",
          "name": "approved",
          "type": "bool"
        }
      ],
      "name": "ApprovalForAll",
      "type": "event"
    },
    {
      "anonymous": false,
      "inputs": [
        {
          "indexed": false,
          "internalType": "address[]",
          "name": "recipients",
          "type": "address[]"
        },
        {
          "indexed": false,
          "internalType": "uint256[]",
          "name": "tokenIds",
          "type": "uint256[]"
        },
        {
          "indexed": true,
          "internalType": "uint256",
          "name": "templateId",
          "type": "uint256"
        },
        {
          "indexed": true,
          "internalType": "bytes32",
          "name": "sessionId",
          "type": "bytes32"
        },
        {
          "indexed": true,
          "internalType": "address",
          "name": "issuer",
          "type": "address"
        },
        {
          "indexed": false,
          "internalType": "uint256",
          "name": "timestamp",
          "type": "uint256"
        }
      ],
      "name": "BatchSBTMinted",
      "type": "event"
    },
    {
      "anonymous": false,
      "inputs": [
        {
          "indexed": true,
          "internalType": "address",
          "name": "previousOwner",
          "type": "address"
        },
        {
          "indexed": true,
          "internalType": "address",
          "name": "newOwner",
          "type": "address"
        }
      ],
      "name": "OwnershipTransferred",
      "type": "event"
    },
    {
      "anonymous": false,
      "inputs": [
        {
          "indexed": false,
          "internalType": "address",
          "name": "account",
          "type": "address"
        }
      ],
      "name": "Paused",
      "type": "event"
    },
    {
      "anonymous": false,
      "inputs": [
        {
          "indexed": true,
          "internalType": "address",
          "name": "recipient",
          "type": "address"
        },
        {
          "indexed": true,
          "internalType": "uint256",
          "name": "tokenId",
          "type": "uint256"
        },
        {
          "indexed": true,
          "internalType": "uint256",
          "name": "templateId",
          "type": "uint256"
        },
        {
          "indexed": false,
          "internalType": "bytes32",
          "name": "sessionId",
          "type": "bytes32"
        },
        {
          "indexed": false,
          "internalType": "address",
          "name": "issuer",
          "type": "address"
        },
        {
          "indexed": false,
          "internalType": "string",
          "name": "name",
          "type": "string"
        },
        {
          "indexed": false,
          "internalType": "string",
          "name": "description",
          "type": "string"
        },
        {
          "indexed": false,
          "internalType": "uint256",
          "name": "timestamp",
          "type": "uint256"
        }
      ],
      "name": "SBTMinted",
      "type": "event"
    },
    {
      "anonymous": false,
      "inputs": [
        {
          "indexed": true,
          "internalType": "uint256",
          "name": "tokenId",
          "type": "uint256"
        },
        {
          "indexed": true,
          "internalType": "address",
          "name": "revoker",
          "type": "address"
        },
        {
          "indexed": false,
          "internalType": "uint256",
          "name": "timestamp",
          "type": "uint256"
        }
      ],
      "name": "SBTRevoked",
      "type": "event"
    },
    {
      "anonymous": false,
      "inputs": [
        {
          "indexed": true,
          "internalType": "address",
          "name": "from",
          "type": "address"
        },
        {
          "indexed": true,
          "internalType": "address",
          "name": "to",
          "type": "address"
        },
        {
          "indexed": true,
          "internalType": "uint256",
          "name": "tokenId",
          "type": "uint256"
        }
      ],
      "name": "Transfer",
      "type": "event"
    },
    {
      "anonymous": false,
      "inputs": [
        {
          "indexed": false,
          "internalType": "address",
          "name": "account",
          "type": "address"
        }
      ],
      "name": "Unpaused",
      "type": "event"
    },
    {
      "inputs": [
        {
          "internalType": "address",
          "name": "",
          "type": "address"
        },
        {
          "internalType": "uint256",
          "name": "",
          "type": "uint256"
        }
      ],
      "name": "approve",
      "outputs": [],
      "stateMutability": "pure",
      "type": "function"
    },
    {
      "inputs": [
        {
          "internalType": "address",
          "name": "owner",
          "type": "address"
        }
      ],
      "name": "balanceOf",
      "outputs": [
        {
          "internalType": "uint256",
          "name": "",
          "type": "uint256"
        }
      ],
      "stateMutability": "view",
      "type": "function"
    },
    {
      "inputs": [
        {
          "internalType": "address[]",
          "name": "recipients",
          "type": "address[]"
        },
        {
          "internalType": "bytes32",
          "name": "sessionId",
          "type": "bytes32"
        }
      ],
      "name": "batchMintFromSession",
      "outputs": [],
      "stateMutability": "nonpayable",
      "type": "function"
    },
    {
      "inputs": [
        {
          "internalType": "bytes32",
          "name": "sessionId",
          "type": "bytes32"
        }
      ],
      "name": "claimFromSession",
      "outputs": [],
      "stateMutability": "nonpayable",
      "type": "function"
    },
    {
      "inputs": [
        {
          "internalType": "uint256",
          "name": "",
          "type": "uint256"
        }
      ],
      "name": "getApproved",
      "outputs": [
        {
          "internalType": "address",
          "name": "",
          "type": "address"
        }
      ],
      "stateMutability": "pure",
      "type": "function"
    },
    {
      "inputs": [],
      "name": "getNextTokenId",
      "outputs": [
        {
          "internalType": "uint256",
          "name": "",
          "type": "uint256"
        }
      ],
      "stateMutability": "view",
      "type": "function"
    },
    {
      "inputs": [
        {
          "internalType": "uint256",
          "name": "tokenId",
          "type": "uint256"
        }
      ],
      "name": "getSBTBasicInfo",
      "outputs": [
        {
          "internalType": "string",
          "name": "name",
          "type": "string"
        },
        {
          "internalType": "string",
          "name": "description",
          "type": "string"
        },
        {
          "internalType": "address",
          "name": "issuer",
          "type": "address"
        },
        {
          "internalType": "uint256",
          "name": "mintedAt",
          "type": "uint256"
        },
        {
          "internalType": "bool",
          "name": "revoked",
          "type": "bool"
        }
      ],
      "stateMutability": "view",
      "type": "function"
    },
    {
      "inputs": [
        {
          "internalType": "uint256",
          "name": "tokenId",
          "type": "uint256"
        }
      ],
      "name": "getSBTInfo",
      "outputs": [
        {
          "components": [
            {
              "internalType": "string",
              "name": "name",
              "type": "string"
            },
            {
              "internalType": "string",
              "name": "description",
              "type": "string"
            },
            {
              "internalType": "address",
              "name": "issuer",
              "type": "address"
            },
            {
              "internalType": "uint256",
              "name": "mintedAt",
              "type": "uint256"
            },
            {
              "internalType": "uint256",
              "name": "templateId",
              "type": "uint256"
            },
            {
              "internalType": "bytes32",
              "name": "sessionId",
              "type": "bytes32"
            },
            {
              "internalType": "bool",
              "name": "revoked",
              "type": "bool"
            }
          ],
          "internalType": "struct SBTToken.SBTData",
          "name": "",
          "type": "tuple"
        }
      ],
      "stateMutability": "view",
      "type": "function"
    },
    {
      "inputs": [
        {
          "internalType": "address",
          "name": "owner",
          "type": "address"
        }
      ],
      "name": "getUserSBTs",
      "outputs": [
        {
          "internalType": "uint256[]",
          "name": "",
          "type": "uint256[]"
        }
      ],
      "stateMutability": "view",
      "type": "function"
    },
    {
      "inputs": [
        {
          "internalType": "address",
          "name": "",
          "type": "address"
        },
        {
          "internalType": "bytes32",
          "name": "",
          "type": "bytes32"
        }
      ],
      "name": "hasTokenFromSession",
      "outputs": [
        {
          "internalType": "bool",
          "name": "",
          "type": "bool"
        }
      ],
      "stateMutability": "view",
      "type": "function"
    },
    {
      "inputs": [
        {
          "internalType": "address",
          "name": "",
          "type": "address"
        },
        {
          "internalType": "uint256",
          "name": "",
          "type": "uint256"
        }
      ],
      "name": "hasTokenFromTemplate",
      "outputs": [
        {
          "internalType": "bool",
          "name": "",
          "type": "bool"
        }
      ],
      "stateMutability": "view",
      "type": "function"
    },
    {
      "inputs": [
        {
          "internalType": "address",
          "name": "",
          "type": "address"
        },
        {
          "internalType": "address",
          "name": "",
          "type": "address"
        }
      ],
      "name": "isApprovedForAll",
      "outputs": [
        {
          "internalType": "bool",
          "name": "",
          "type": "bool"
        }
      ],
      "stateMutability": "pure",
      "type": "function"
    },
    {
      "inputs": [],
      "name": "issuerRegistry",
      "outputs": [
        {
          "internalType": "contract IssuerRegistry",
          "name": "",
          "type": "address"
        }
      ],
      "stateMutability": "view",
      "type": "function"
    },
    {
      "inputs": [
        {
          "internalType": "address",
          "name": "to",
          "type": "address"
        },
        {
          "internalType": "bytes32",
          "name": "sessionId",
          "type": "bytes32"
        }
      ],
      "name": "mintFromSession",
      "outputs": [],
      "stateMutability": "nonpayable",
      "type": "function"
    },
    {
      "inputs": [
        {
          "internalType": "address",
          "name": "to",
          "type": "address"
        },
        {
          "internalType": "uint256",
          "name": "templateId",
          "type": "uint256"
        }
      ],
      "name": "mintFromTemplate",
      "outputs": [],
      "stateMutability": "nonpayable",
      "type": "function"
    },
    {
      "inputs": [],
      "name": "name",
      "outputs": [
        {
          "internalType": "string",
          "name": "",
          "type": "string"
        }
      ],
      "stateMutability": "view",
      "type": "function"
    },
    {
      "inputs": [],
      "name": "owner",
      "outputs": [
        {
          "internalType": "address",
          "name": "",
          "type": "address"
        }
      ],
      "stateMutability": "view",
      "type": "function"
    },
    {
      "inputs": [
        {
          "internalType": "uint256",
          "name": "tokenId",
          "type": "uint256"
        }
      ],
      "name": "ownerOf",
      "outputs": [
        {
          "internalType": "address",
          "name": "",
          "type": "address"
        }
      ],
      "stateMutability": "view",
      "type": "function"
    },
    {
      "inputs": [],
      "name": "pause",
      "outputs": [],
      "stateMutability": "nonpayable",
      "type": "function"
    },
    {
      "inputs": [],
      "name": "paused",
      "outputs": [
        {
          "internalType": "bool",
          "name": "",
          "type": "bool"
        }
      ],
      "stateMutability": "view",
      "type": "function"
    },
    {
      "inputs": [],
      "name": "renounceOwnership",
      "outputs": [],
      "stateMutability": "nonpayable",
      "type": "function"
    },
    {
      "inputs": [
        {
          "internalType": "uint256",
          "name": "tokenId",
          "type": "uint256"
        }
      ],
      "name": "revokeSBT",
      "outputs": [],
      "stateMutability": "nonpayable",
      "type": "function"
    },
    {
      "inputs": [
        {
          "internalType": "address",
          "name": "from",
          "type": "address"
        },
        {
          "internalType": "address",
          "name": "to",
          "type": "address"
        },
        {
          "internalType": "uint256",
          "name": "tokenId",
          "type": "uint256"
        }
      ],
      "name": "safeTransferFrom",
      "outputs": [],
      "stateMutability": "nonpayable",
      "type": "function"
    },
    {
      "inputs": [
        {
          "internalType": "address",
          "name": "from",
          "type": "address"
        },
        {
          "internalType": "address",
          "name": "to",
          "type": "address"
        },
        {
          "internalType": "uint256",
          "name": "tokenId",
          "type": "uint256"
        },
        {
          "internalType": "bytes",
          "name": "data",
          "type": "bytes"
        }
      ],
      "name": "safeTransferFrom",
      "outputs": [],
      "stateMutability": "nonpayable",
      "type": "function"
    },
    {
      "inputs": [
        {
          "internalType": "uint256",
          "name": "",
          "type": "uint256"
        }
      ],
      "name": "sbtData",
      "outputs": [
        {
          "internalType": "string",
          "name": "name",
          "type": "string"
        },
        {
          "internalType": "string",
          "name": "description",
          "type": "string"
        },
        {
          "internalType": "address",
          "name": "issuer",
          "type": "address"
        },
        {
          "internalType": "uint256",
          "name": "mintedAt",
          "type": "uint256"
        },
        {
          "internalType": "uint256",
          "name": "templateId",
          "type": "uint256"
        },
        {
          "internalType": "bytes32",
          "name": "sessionId",
          "type": "bytes32"
        },
        {
          "internalType": "bool",
          "name": "revoked",
          "type": "bool"
        }
      ],
      "stateMutability": "view",
      "type": "function"
    },
    {
      "inputs": [],
      "name": "sbtSession",
      "outputs": [
        {
          "internalType": "contract SBTSession",
          "name": "",
          "type": "address"
        }
      ],
      "stateMutability": "view",
      "type": "function"
    },
    {
      "inputs": [],
      "name": "sbtTemplate",
      "outputs": [
        {
          "internalType": "contract SBTTemplate",
          "name": "",
          "type": "address"
        }
      ],
      "stateMutability": "view",
      "type": "function"
    },
    {
      "inputs": [
        {
          "internalType": "address",
          "name": "",
          "type": "address"
        },
        {
          "internalType": "bool",
          "name": "",
          "type": "bool"
        }
      ],
      "name": "setApprovalForAll",
      "outputs": [],
      "stateMutability": "pure",
      "type": "function"
    },
    {
      "inputs": [
        {
          "internalType": "bytes4",
          "name": "interfaceId",
          "type": "bytes4"
        }
      ],
      "name": "supportsInterface",
      "outputs": [
        {
          "internalType": "bool",
          "name": "",
          "type": "bool"
        }
      ],
      "stateMutability": "view",
      "type": "function"
    },
    {
      "inputs": [],
      "name": "symbol",
      "outputs": [
        {
          "internalType": "string",
          "name": "",
          "type": "string"
        }
      ],
      "stateMutability": "view",
      "type": "function"
    },
    {
      "inputs": [
        {
          "internalType": "uint256",
          "name": "index",
          "type": "uint256"
        }
      ],
      "name": "tokenByIndex",
      "outputs": [
        {
          "internalType": "uint256",
          "name": "",
          "type": "uint256"
        }
      ],
      "stateMutability": "view",
      "type": "function"
    },
    {
      "inputs": [
        {
          "internalType": "address",
          "name": "owner",
          "type": "address"
        },
        {
          "internalType": "uint256",
          "name": "index",
          "type": "uint256"
        }
      ],
      "name": "tokenOfOwnerByIndex",
      "outputs": [
        {
          "internalType": "uint256",
          "name": "",
          "type": "uint256"
        }
      ],
      "stateMutability": "view",
      "type": "function"
    },
    {
      "inputs": [
        {
          "internalType": "uint256",
          "name": "tokenId",
          "type": "uint256"
        }
      ],
      "name": "tokenURI",
      "outputs": [
        {
          "internalType": "string",
          "name": "",
          "type": "string"
        }
      ],
      "stateMutability": "view",
      "type": "function"
    },
    {
      "inputs": [],
      "name": "totalSupply",
      "outputs": [
        {
          "internalType": "uint256",
          "name": "",
          "type": "uint256"
        }
      ],
      "stateMutability": "view",
      "type": "function"
    },
    {
      "inputs": [
        {
          "internalType": "address",
          "name": "from",
          "type": "address"
        },
        {
          "internalType": "address",
          "name": "to",
          "type": "address"
        },
        {
          "internalType": "uint256",
          "name": "tokenId",
          "type": "uint256"
        }
      ],
      "name": "transferFrom",
      "outputs": [],
      "stateMutability": "nonpayable",
      "type": "function"
    },
    {
      "inputs": [
        {
          "internalType": "address",
          "name": "newOwner",
          "type": "address"
        }
      ],
      "name": "transferOwnership",
      "outputs": [],
      "stateMutability": "nonpayable",
      "type": "function"
    },
    {
      "inputs": [],
      "name": "unpause",
      "outputs": [],
      "stateMutability": "nonpayable",
      "type": "function"
    }
  ],
  "transactionHash": "0xf0212b4656f2f3de7887c102a7d90db76ed8583609721f44871951f1f7d34d82",
  "args": [
    "0xd82c3510567ce848DfcAD32b7e69877C0f66D9b1",
    "0xFB1FF20107a62fE550d83ACa4E4Bf460dD77a944",
    "0x223A7cBfc7fAA7261E97EEEfFD7c8356A92B40be",
    "0x1672551E251E0Cc40521Cdab4eC44095C6b25445"
  ],
  "numDeployments": 3,
  "solcInputHash": "127a6125411a5042ffefa71ec92c8b89",
  "bytecode": "0x60e06040526001600c553480156200001657600080fd5b5060405162004443380380620044438339810160408190526200003991620002a5565b836040518060400160405280600f81526020016e29b7bab63137bab732102a37b5b2b760891b8152506040518060400160405280600381526020016214d09560ea1b81525081600090816200008f9190620003a7565b5060016200009e8282620003a7565b5050506001600160a01b038116620000d157604051631e4fbdf760e01b8152600060048201526024015b60405180910390fd5b620000dc8162000236565b50600a805460ff60a01b191690556001600b556001600160a01b038316620001525760405162461bcd60e51b815260206004820152602260248201527f534254546f6b656e3a20496e76616c6964207265676973747279206164647265604482015261737360f01b6064820152608401620000c8565b6001600160a01b038216620001b55760405162461bcd60e51b815260206004820152602260248201527f534254546f6b656e3a20496e76616c69642074656d706c617465206164647265604482015261737360f01b6064820152608401620000c8565b6001600160a01b038116620002175760405162461bcd60e51b815260206004820152602160248201527f534254546f6b656e3a20496e76616c69642073657373696f6e206164647265736044820152607360f81b6064820152608401620000c8565b6001600160a01b0392831660805290821660a0521660c0525062000473565b600a80546001600160a01b038381166001600160a01b0319831681179093556040519116919082907f8be0079c531659141344cd1fd0a4f28419497f9722a3daafe3b4186f6b6457e090600090a35050565b80516001600160a01b0381168114620002a057600080fd5b919050565b60008060008060808587031215620002bc57600080fd5b620002c78562000288565b9350620002d76020860162000288565b9250620002e76040860162000288565b9150620002f76060860162000288565b905092959194509250565b634e487b7160e01b600052604160045260246000fd5b600181811c908216806200032d57607f821691505b6020821081036200034e57634e487b7160e01b600052602260045260246000fd5b50919050565b601f821115620003a257600081815260208120601f850160051c810160208610156200037d5750805b601f850160051c820191505b818110156200039e5782815560010162000389565b5050505b505050565b81516001600160401b03811115620003c357620003c362000302565b620003db81620003d4845462000318565b8462000354565b602080601f831160018114620004135760008415620003fa5750858301515b600019600386901b1c1916600185901b1785556200039e565b600085815260208120601f198616915b82811015620004445788860151825594840194600190910190840162000423565b5085821015620004635787850151600019600388901b60f8161c191681555b5050505050600190811b01905550565b60805160a05160c051613f2262000521600039600081816103c10152818161091801528181610a0401528181610cc0015281816111640152818161120c015281816113050152818161179e015281816123a70152818161248a01526126f101526000818161044901528181610af9015281816113fd01528181611d2a01528181611e9201526125070152600081816104780152818161083d0152818161100c0152611c4f0152613f226000f3fe608060405234801561001057600080fd5b50600436106102275760003560e01c806370a0823111610130578063a22cb465116100b8578063caa0f92a1161007c578063caa0f92a14610528578063d7c2d72914610530578063e985e9c514610554578063f2fde38b1461056a578063fbd1ba211461057d57600080fd5b8063a22cb465146104b3578063a845be0d146104c1578063af7177e4146104ef578063b88d4fde14610502578063c87b56dd1461051557600080fd5b806380d6e3b1116100ff57806380d6e3b1146104445780638456cb591461046b5780638bfc1851146104735780638da5cb5b1461049a57806395d89b41146104ab57600080fd5b806370a08231146103e3578063715018a6146103f6578063776fafac146103fe5780637ef8c2e51461042457600080fd5b806337a28e3b116101b357806355a6dcb61161018257806355a6dcb6146103565780635c975abb146103845780635cf6c77b146103965780636352211e146103a957806369267fef146103bc57600080fd5b806337a28e3b146103155780633f4ba83a1461032857806342842e0e146103305780634f6ccce71461034357600080fd5b806318160ddd116101fa57806318160ddd146102aa57806323b872dd146102bc5780632ecd7444146102cf5780632f745c59146102ef57806330e9f9c11461030257600080fd5b806301ffc9a71461022c57806306fdde0314610254578063081812fc14610269578063095ea7b314610295575b600080fd5b61023f61023a3660046132eb565b610590565b60405190151581526020015b60405180910390f35b61025c6105a1565b60405161024b9190613358565b61027d61027736600461336b565b50600090565b6040516001600160a01b03909116815260200161024b565b6102a86102a3366004613399565b610633565b005b6008545b60405190815260200161024b565b6102a86102ca3660046133c5565b610696565b6102e26102dd366004613406565b610721565b60405161024b919061345e565b6102ae6102fd366004613399565b6107c3565b6102a8610310366004613399565b610828565b6102a861032336600461336b565b610d72565b6102a8610f6c565b6102a861033e3660046133c5565b610f7e565b6102ae61035136600461336b565b610f9e565b61023f610364366004613399565b600e60209081526000928352604080842090915290825290205460ff1681565b600a54600160a01b900460ff1661023f565b6102a86103a4366004613505565b610ff7565b61027d6103b736600461336b565b611870565b61027d7f000000000000000000000000000000000000000000000000000000000000000081565b6102ae6103f1366004613406565b61187b565b6102a86118c3565b61041161040c36600461336b565b6118d5565b60405161024b97969594939291906135bd565b61043761043236600461336b565b611a2d565b60405161024b9190613618565b61027d7f000000000000000000000000000000000000000000000000000000000000000081565b6102a8611c1b565b61027d7f000000000000000000000000000000000000000000000000000000000000000081565b600a546001600160a01b031661027d565b61025c611c2b565b6102a86102a33660046136a9565b61023f6104cf366004613399565b600f60209081526000928352604080842090915290825290205460ff1681565b6102a86104fd366004613399565b611c3a565b6102a861051036600461370a565b6120b8565b61025c61052336600461336b565b6120cf565b600c546102ae565b61054361053e36600461336b565b612144565b60405161024b9594939291906137b9565b61023f610562366004613807565b600092915050565b6102a8610578366004613406565b612343565b6102a861058b36600461336b565b612381565b600061059b826127a3565b92915050565b6060600080546105b090613835565b80601f01602080910402602001604051908101604052809291908181526020018280546105dc90613835565b80156106295780601f106105fe57610100808354040283529160200191610629565b820191906000526020600020905b81548152906001019060200180831161060c57829003601f168201915b5050505050905090565b60405162461bcd60e51b815260206004820152602d60248201527f534254546f6b656e3a20536f756c626f756e6420746f6b656e732063616e6e6f60448201526c1d08189948185c1c1c9bdd9959609a1b60648201526084015b60405180910390fd5b6001600160a01b0382166106c057604051633250574960e11b81526000600482015260240161068d565b60006106cd8383336127c8565b9050836001600160a01b0316816001600160a01b03161461071b576040516364283d7b60e01b81526001600160a01b038086166004830152602482018490528216604482015260640161068d565b50505050565b6060600061072e8361187b565b905060008167ffffffffffffffff81111561074b5761074b613471565b604051908082528060200260200182016040528015610774578160200160208202803683370190505b50905060005b828110156107bb5761078c85826107c3565b82828151811061079e5761079e61386f565b6020908102919091010152806107b38161389b565b91505061077a565b509392505050565b60006107ce8361187b565b82106107ff5760405163295f44f760e21b81526001600160a01b03841660048201526024810183905260440161068d565b506001600160a01b03919091166000908152600660209081526040808320938352929052205490565b6040516318dd0cb360e11b81523360048201527f00000000000000000000000000000000000000000000000000000000000000006001600160a01b0316906331ba196690602401602060405180830381865afa15801561088c573d6000803e3d6000fd5b505050506040513d601f19601f820116820180604052508101906108b091906138c4565b6108cc5760405162461bcd60e51b815260040161068d906138e1565b6108d4612871565b6108dc61289c565b6001600160a01b0382166109025760405162461bcd60e51b815260040161068d90613923565b60405163376c0f6560e11b8152600481018290527f00000000000000000000000000000000000000000000000000000000000000006001600160a01b031690636ed81eca90602401602060405180830381865afa158015610967573d6000803e3d6000fd5b505050506040513d601f19601f8201168201806040525081019061098b91906138c4565b6109a75760405162461bcd60e51b815260040161068d90613968565b6001600160a01b0382166000908152600f6020908152604080832084845290915290205460ff16156109eb5760405162461bcd60e51b815260040161068d906139aa565b6040516339b240bd60e01b8152600481018290526000907f00000000000000000000000000000000000000000000000000000000000000006001600160a01b0316906339b240bd90602401600060405180830381865afa158015610a53573d6000803e3d6000fd5b505050506040513d6000823e601f3d908101601f19168201604052610a7b9190810190613a4c565b60a08101519091506001600160a01b03163314610ada5760405162461bcd60e51b815260206004820152601b60248201527f534254546f6b656e3a204e6f742073657373696f6e206f776e65720000000000604482015260640161068d565b6020810151604051630c550f3d60e21b81526000916001600160a01b037f000000000000000000000000000000000000000000000000000000000000000016916331543cf491610b309160040190815260200190565b600060405180830381865afa158015610b4d573d6000803e3d6000fd5b505050506040513d6000823e601f3d908101601f19168201604052610b759190810190613b0e565b600c80549192506000919082610b8a8361389b565b919050559050610b9a85826128c6565b6040805160e08101825260208085015182528483015181830152338284015242606083015285810151608083015260a08201879052600060c08301819052848152600d9091529190912081518190610bf29082613c23565b5060208201516001820190610c079082613c23565b506040828101516002830180546001600160a01b039283166001600160a01b031990911617905560608401516003840155608084015160048085019190915560a0850151600585015560c0909401516006909301805493151560ff199485161790558881166000818152600f60209081528482208b83528152848220805487166001908117909155928252600e81528482208a8201518352905283902080549094161790925551636d37515560e11b81529182018690527f0000000000000000000000000000000000000000000000000000000000000000169063da6ea2aa90602401600060405180830381600087803b158015610d0457600080fd5b505af1158015610d18573d6000803e3d6000fd5b50505050826020015181866001600160a01b0316600080516020613ecd83398151915287338760200151886040015142604051610d59959493929190613ce3565b60405180910390a4505050610d6e6001600b55565b5050565b60008181526002602052604090205481906001600160a01b0316610da85760405162461bcd60e51b815260040161068d90613d32565b6000818152600d602052604090206006015460ff1615610e0a5760405162461bcd60e51b815260206004820181905260248201527f534254546f6b656e3a20546f6b656e20686173206265656e207265766f6b6564604482015260640161068d565b610e12612871565b6000828152600d60205260409020600201546001600160a01b0316331480610e445750600a546001600160a01b031633145b610e9b5760405162461bcd60e51b815260206004820152602260248201527f534254546f6b656e3a204e6f7420617574686f72697a656420746f207265766f6044820152616b6560f01b606482015260840161068d565b6000610ea683611870565b6000848152600d60209081526040808320600481015460058201546006909201805460ff199081166001179091556001600160a01b0387168652600e85528386208287529094529190932080549092169091559192508015610f2e576001600160a01b0383166000908152600f602090815260408083208484529091529020805460ff191690555b604051428152339086907ffab34fd9b450b5a4506a88e4c9007da05e474185d1aa25d3306e5b2ef1b2b0419060200160405180910390a35050505050565b610f746128e0565b610f7c61290d565b565b610f99838383604051806020016040528060008152506120b8565b505050565b6000610fa960085490565b8210610fd25760405163295f44f760e21b8152600060048201526024810183905260440161068d565b60088281548110610fe557610fe561386f565b90600052602060002001549050919050565b6040516318dd0cb360e11b81523360048201527f00000000000000000000000000000000000000000000000000000000000000006001600160a01b0316906331ba196690602401602060405180830381865afa15801561105b573d6000803e3d6000fd5b505050506040513d601f19601f8201168201806040525081019061107f91906138c4565b61109b5760405162461bcd60e51b815260040161068d906138e1565b6110a3612871565b6110ab61289c565b60008251116110fc5760405162461bcd60e51b815260206004820181905260248201527f534254546f6b656e3a20456d70747920726563697069656e7473206172726179604482015260640161068d565b60648251111561114e5760405162461bcd60e51b815260206004820152601e60248201527f534254546f6b656e3a2042617463682073697a6520746f6f206c617267650000604482015260640161068d565b60405163376c0f6560e11b8152600481018290527f00000000000000000000000000000000000000000000000000000000000000006001600160a01b031690636ed81eca90602401602060405180830381865afa1580156111b3573d6000803e3d6000fd5b505050506040513d601f19601f820116820180604052508101906111d791906138c4565b6111f35760405162461bcd60e51b815260040161068d90613968565b6040516339b240bd60e01b8152600481018290526000907f00000000000000000000000000000000000000000000000000000000000000006001600160a01b0316906339b240bd90602401600060405180830381865afa15801561125b573d6000803e3d6000fd5b505050506040513d6000823e601f3d908101601f191682016040526112839190810190613a4c565b60a08101519091506001600160a01b031633146112e25760405162461bcd60e51b815260206004820152601b60248201527f534254546f6b656e3a204e6f742073657373696f6e206f776e65720000000000604482015260640161068d565b60405163db67dcc760e01b81526004810183905260009081906001600160a01b037f0000000000000000000000000000000000000000000000000000000000000000169063db67dcc790602401608060405180830381865afa15801561134c573d6000803e3d6000fd5b505050506040513d601f19601f820116820180604052508101906113709190613d69565b505091509150808551836113849190613d9f565b11156113de5760405162461bcd60e51b8152602060048201526024808201527f534254546f6b656e3a20457863656564732073657373696f6e206d696e74206c6044820152631a5b5a5d60e21b606482015260840161068d565b6020830151604051630c550f3d60e21b81526000916001600160a01b037f000000000000000000000000000000000000000000000000000000000000000016916331543cf4916114349160040190815260200190565b600060405180830381865afa158015611451573d6000803e3d6000fd5b505050506040513d6000823e601f3d908101601f191682016040526114799190810190613b0e565b90506000865167ffffffffffffffff81111561149757611497613471565b6040519080825280602002602001820160405280156114c0578160200160208202803683370190505b50905060005b875181101561177b5760008882815181106114e3576114e361386f565b6020026020010151905060006001600160a01b0316816001600160a01b03160361151f5760405162461bcd60e51b815260040161068d90613923565b6001600160a01b0381166000908152600f602090815260408083208b845290915290205460ff16156115635760405162461bcd60e51b815260040161068d906139aa565b600c8054600091826115748361389b565b9190505590508084848151811061158d5761158d61386f565b6020026020010181815250506115a382826128c6565b6040805160e0810182526020808801518252878301518183015233828401524260608301528a810151608083015260a082018c9052600060c08301819052848152600d90915291909120815181906115fb9082613c23565b50602082015160018201906116109082613c23565b5060408201518160020160006101000a8154816001600160a01b0302191690836001600160a01b03160217905550606082015181600301556080820151816004015560a0820151816005015560c08201518160060160006101000a81548160ff0219169083151502179055509050506001600f6000846001600160a01b03166001600160a01b0316815260200190815260200160002060008b815260200190815260200160002060006101000a81548160ff0219169083151502179055506001600e6000846001600160a01b03166001600160a01b0316815260200190815260200160002060008a60200151815260200190815260200160002060006101000a81548160ff021916908315150217905550876020015181836001600160a01b0316600080516020613ecd8339815191528c338a602001518b604001514260405161175e959493929190613ce3565b60405180910390a4505080806117739061389b565b9150506114c6565b5060005b875181101561181557604051636d37515560e11b8152600481018890527f00000000000000000000000000000000000000000000000000000000000000006001600160a01b03169063da6ea2aa90602401600060405180830381600087803b1580156117ea57600080fd5b505af11580156117fe573d6000803e3d6000fd5b50505050808061180d9061389b565b91505061177f565b50336001600160a01b03168686602001517fb4dd71f324962c2514f3a37597443b86dad19f051b656bb20827b4841d88eae08a854260405161185993929190613db2565b60405180910390a45050505050610d6e6001600b55565b600061059b82612962565b60006001600160a01b0382166118a7576040516322718ad960e21b81526000600482015260240161068d565b506001600160a01b031660009081526003602052604090205490565b6118cb6128e0565b610f7c600061299b565b600d602052600090815260409020805481906118f090613835565b80601f016020809104026020016040519081016040528092919081815260200182805461191c90613835565b80156119695780601f1061193e57610100808354040283529160200191611969565b820191906000526020600020905b81548152906001019060200180831161194c57829003601f168201915b50505050509080600101805461197e90613835565b80601f01602080910402602001604051908101604052809291908181526020018280546119aa90613835565b80156119f75780601f106119cc576101008083540402835291602001916119f7565b820191906000526020600020905b8154815290600101906020018083116119da57829003601f168201915b505050600284015460038501546004860154600587015460069097015495966001600160a01b0390931695919450925060ff1687565b6040805160e0810182526060808252602080830182905260008385018190529183018290526080830182905260a0830182905260c083018290528482526002905291909120546001600160a01b0316611a985760405162461bcd60e51b815260040161068d90613d32565b6000828152600d602052604090819020815160e08101909252805482908290611ac090613835565b80601f0160208091040260200160405190810160405280929190818152602001828054611aec90613835565b8015611b395780601f10611b0e57610100808354040283529160200191611b39565b820191906000526020600020905b815481529060010190602001808311611b1c57829003601f168201915b50505050508152602001600182018054611b5290613835565b80601f0160208091040260200160405190810160405280929190818152602001828054611b7e90613835565b8015611bcb5780601f10611ba057610100808354040283529160200191611bcb565b820191906000526020600020905b815481529060010190602001808311611bae57829003601f168201915b505050918352505060028201546001600160a01b0316602082015260038201546040820152600482015460608201526005820154608082015260069091015460ff16151560a09091015292915050565b611c236128e0565b610f7c6129ed565b6060600180546105b090613835565b6040516318dd0cb360e11b81523360048201527f00000000000000000000000000000000000000000000000000000000000000006001600160a01b0316906331ba196690602401602060405180830381865afa158015611c9e573d6000803e3d6000fd5b505050506040513d601f19601f82011682018060405250810190611cc291906138c4565b611cde5760405162461bcd60e51b815260040161068d906138e1565b611ce6612871565b611cee61289c565b6001600160a01b038216611d145760405162461bcd60e51b815260040161068d90613923565b60405163e0a0d93360e01b8152600481018290527f00000000000000000000000000000000000000000000000000000000000000006001600160a01b03169063e0a0d93390602401602060405180830381865afa158015611d79573d6000803e3d6000fd5b505050506040513d601f19601f82011682018060405250810190611d9d91906138c4565b611de95760405162461bcd60e51b815260206004820181905260248201527f534254546f6b656e3a2054656d706c617465206973206e6f7420616374697665604482015260640161068d565b6001600160a01b0382166000908152600e6020908152604080832084845290915290205460ff1615611e795760405162461bcd60e51b815260206004820152603360248201527f534254546f6b656e3a205573657220616c72656164792068617320746f6b656e6044820152722066726f6d20746869732074656d706c61746560681b606482015260840161068d565b604051630c550f3d60e21b8152600481018290526000907f00000000000000000000000000000000000000000000000000000000000000006001600160a01b0316906331543cf490602401600060405180830381865afa158015611ee1573d6000803e3d6000fd5b505050506040513d6000823e601f3d908101601f19168201604052611f099190810190613b0e565b60608101519091506001600160a01b03163314611f685760405162461bcd60e51b815260206004820152601c60248201527f534254546f6b656e3a204e6f742074656d706c617465206f776e657200000000604482015260640161068d565b600c805460009182611f798361389b565b919050559050611f8984826128c6565b6040805160e08101825260208085015182528483015181830152338284015242606083015260808201869052600060a0830181905260c08301819052848152600d9091529190912081518190611fdf9082613c23565b5060208201516001820190611ff49082613c23565b506040828101516002830180546001600160a01b039283166001600160a01b0319909116179055606084015160038401556080840151600484015560a0840151600584015560c0909301516006909201805492151560ff199384161790559186166000818152600e6020908152848220888352815284822080549094166001179093559185015185840151935187948694600080516020613ecd833981519152936120a493919233924290613ce3565b60405180910390a45050610d6e6001600b55565b6120c3848484610696565b61071b84848484612a30565b60606120da82612962565b5060006120f260408051602081019091526000815290565b90506000815111612112576040518060200160405280600081525061213d565b8061211c84612b59565b60405160200161212d929190613e1a565b6040516020818303038152906040525b9392505050565b606080600080808061216b876000908152600260205260409020546001600160a01b031690565b6001600160a01b0316036121915760405162461bcd60e51b815260040161068d90613d32565b6000868152600d6020526040808220815160e081019092528054829082906121b890613835565b80601f01602080910402602001604051908101604052809291908181526020018280546121e490613835565b80156122315780601f1061220657610100808354040283529160200191612231565b820191906000526020600020905b81548152906001019060200180831161221457829003601f168201915b5050505050815260200160018201805461224a90613835565b80601f016020809104026020016040519081016040528092919081815260200182805461227690613835565b80156122c35780601f10612298576101008083540402835291602001916122c3565b820191906000526020600020905b8154815290600101906020018083116122a657829003601f168201915b505050918352505060028201546001600160a01b0316602080830191909152600383015460408084019190915260048401546060808501919091526005850154608085015260069094015460ff16151560a090930192909252835190840151918401519284015160c090940151909b919a50919850919650945092505050565b61234b6128e0565b6001600160a01b03811661237557604051631e4fbdf760e01b81526000600482015260240161068d565b61237e8161299b565b50565b612389612871565b61239161289c565b60405163376c0f6560e11b8152600481018290527f00000000000000000000000000000000000000000000000000000000000000006001600160a01b031690636ed81eca90602401602060405180830381865afa1580156123f6573d6000803e3d6000fd5b505050506040513d601f19601f8201168201806040525081019061241a91906138c4565b6124365760405162461bcd60e51b815260040161068d90613968565b336000908152600f6020908152604080832084845290915290205460ff16156124715760405162461bcd60e51b815260040161068d906139aa565b6040516339b240bd60e01b8152600481018290526000907f00000000000000000000000000000000000000000000000000000000000000006001600160a01b0316906339b240bd90602401600060405180830381865afa1580156124d9573d6000803e3d6000fd5b505050506040513d6000823e601f3d908101601f191682016040526125019190810190613a4c565b905060007f00000000000000000000000000000000000000000000000000000000000000006001600160a01b03166331543cf483602001516040518263ffffffff1660e01b815260040161255791815260200190565b600060405180830381865afa158015612574573d6000803e3d6000fd5b505050506040513d6000823e601f3d908101601f1916820160405261259c9190810190613b0e565b600c805491925060009190826125b18361389b565b9190505590506125c133826128c6565b6040805160e0810182526020808501518252848301518183015260a0808701516001600160a01b0316838501524260608401528682015160808401528201879052600060c08301819052848152600d90915291909120815181906126259082613c23565b506020820151600182019061263a9082613c23565b506040828101516002830180546001600160a01b039283166001600160a01b031990911617905560608401516003840155608084015160048085019190915560a0850151600585015560c0909401516006909301805493151560ff19948516179055336000818152600f60209081528482208b83528152848220805487166001908117909155928252600e81528482208a8201518352905283902080549094161790925551636d37515560e11b81529182018690527f0000000000000000000000000000000000000000000000000000000000000000169063da6ea2aa90602401600060405180830381600087803b15801561273557600080fd5b505af1158015612749573d6000803e3d6000fd5b50505050826020015181336001600160a01b0316600080516020613ecd833981519152878760a00151876020015188604001514260405161278e959493929190613ce3565b60405180910390a450505061237e6001600b55565b60006001600160e01b0319821663780e9d6360e01b148061059b575061059b82612bec565b6000828152600260205260408120546001600160a01b031680158015906127f757506001600160a01b03851615155b1561285d5760405162461bcd60e51b815260206004820152603060248201527f534254546f6b656e3a20536f756c626f756e6420746f6b656e732063616e6e6f60448201526f1d081899481d1c985b9cd9995c9c995960821b606482015260840161068d565b612868858585612c3c565b95945050505050565b600a54600160a01b900460ff1615610f7c5760405163d93c066560e01b815260040160405180910390fd5b6002600b54036128bf57604051633ee5aeb560e01b815260040160405180910390fd5b6002600b55565b610d6e828260405180602001604052806000815250612d11565b600a546001600160a01b03163314610f7c5760405163118cdaa760e01b815233600482015260240161068d565b612915612d28565b600a805460ff60a01b191690557f5db9ee0a495bf2e6ff9c91a7834c1ba4fdd244a5e8aa4e537bd38aeae4b073aa335b6040516001600160a01b03909116815260200160405180910390a1565b6000818152600260205260408120546001600160a01b03168061059b57604051637e27328960e01b81526004810184905260240161068d565b600a80546001600160a01b038381166001600160a01b0319831681179093556040519116919082907f8be0079c531659141344cd1fd0a4f28419497f9722a3daafe3b4186f6b6457e090600090a35050565b6129f5612871565b600a805460ff60a01b1916600160a01b1790557f62e78cea01bee320cd4e420270b5ea74000d11b0c9f74754ebdbfc544b05a2586129453390565b6001600160a01b0383163b1561071b57604051630a85bd0160e11b81526001600160a01b0384169063150b7a0290612a72903390889087908790600401613e49565b6020604051808303816000875af1925050508015612aad575060408051601f3d908101601f19168201909252612aaa91810190613e86565b60015b612b16573d808015612adb576040519150601f19603f3d011682016040523d82523d6000602084013e612ae0565b606091505b508051600003612b0e57604051633250574960e11b81526001600160a01b038516600482015260240161068d565b805181602001fd5b6001600160e01b03198116630a85bd0160e11b14612b5257604051633250574960e11b81526001600160a01b038516600482015260240161068d565b5050505050565b60606000612b6683612d52565b600101905060008167ffffffffffffffff811115612b8657612b86613471565b6040519080825280601f01601f191660200182016040528015612bb0576020820181803683370190505b5090508181016020015b600019016f181899199a1a9b1b9c1cb0b131b232b360811b600a86061a8153600a8504945084612bba57509392505050565b60006001600160e01b031982166380ac58cd60e01b1480612c1d57506001600160e01b03198216635b5e139f60e01b145b8061059b57506301ffc9a760e01b6001600160e01b031983161461059b565b600080612c4a858585612e2a565b90506001600160a01b038116612ca757612ca284600880546000838152600960205260408120829055600182018355919091527ff3f7a9fe364faab93b216da50a3214154f22a0a2b415b23a84c8169e8b636ee30155565b612cca565b846001600160a01b0316816001600160a01b031614612cca57612cca8185612f23565b6001600160a01b038516612ce657612ce184612fb4565b612d09565b846001600160a01b0316816001600160a01b031614612d0957612d098585613063565b949350505050565b612d1b83836130b3565b610f996000848484612a30565b600a54600160a01b900460ff16610f7c57604051638dfc202b60e01b815260040160405180910390fd5b60008072184f03e93ff9f4daa797ed6e38ed64bf6a1f0160401b8310612d915772184f03e93ff9f4daa797ed6e38ed64bf6a1f0160401b830492506040015b6d04ee2d6d415b85acef81000000008310612dbd576d04ee2d6d415b85acef8100000000830492506020015b662386f26fc100008310612ddb57662386f26fc10000830492506010015b6305f5e1008310612df3576305f5e100830492506008015b6127108310612e0757612710830492506004015b60648310612e19576064830492506002015b600a831061059b5760010192915050565b6000828152600260205260408120546001600160a01b0390811690831615612e5757612e57818486613118565b6001600160a01b03811615612e9557612e7460008560008061317c565b6001600160a01b038116600090815260036020526040902080546000190190555b6001600160a01b03851615612ec4576001600160a01b0385166000908152600360205260409020805460010190555b60008481526002602052604080822080546001600160a01b0319166001600160a01b0389811691821790925591518793918516917fddf252ad1be2c89b69c2b068fc378daa952ba7f163c4a11628f55a4df523b3ef91a4949350505050565b6000612f2e8361187b565b600083815260076020526040902054909150808214612f81576001600160a01b03841660009081526006602090815260408083208584528252808320548484528184208190558352600790915290208190555b5060009182526007602090815260408084208490556001600160a01b039094168352600681528383209183525290812055565b600854600090612fc690600190613ea3565b60008381526009602052604081205460088054939450909284908110612fee57612fee61386f565b90600052602060002001549050806008838154811061300f5761300f61386f565b600091825260208083209091019290925582815260099091526040808220849055858252812055600880548061304757613047613eb6565b6001900381819060005260206000200160009055905550505050565b600060016130708461187b565b61307a9190613ea3565b6001600160a01b039093166000908152600660209081526040808320868452825280832085905593825260079052919091209190915550565b6001600160a01b0382166130dd57604051633250574960e11b81526000600482015260240161068d565b60006130eb838360006127c8565b90506001600160a01b03811615610f99576040516339e3563760e11b81526000600482015260240161068d565b613123838383613279565b610f99576001600160a01b03831661315157604051637e27328960e01b81526004810182905260240161068d565b60405163177e802f60e01b81526001600160a01b03831660048201526024810182905260440161068d565b808061319057506001600160a01b03821615155b156132495760006131a084612962565b90506001600160a01b038316158015906131cc5750826001600160a01b0316816001600160a01b031614155b80156131d6575060015b156131ff5760405163a9fbf51f60e01b81526001600160a01b038416600482015260240161068d565b81156132475783856001600160a01b0316826001600160a01b03167f8c5be1e5ebec7d5bd14f71427d1e84f3dd0314c0f7b2291e5b200ac8c7c3b92560405160405180910390a45b505b5050600090815260046020526040902080546001600160a01b0319166001600160a01b0392909216919091179055565b60006001600160a01b03831615801590612d095750826001600160a01b0316846001600160a01b031614806132ac575060005b80612d095750506000908152600460205260409020546001600160a01b03908116911614919050565b6001600160e01b03198116811461237e57600080fd5b6000602082840312156132fd57600080fd5b813561213d816132d5565b60005b8381101561332357818101518382015260200161330b565b50506000910152565b60008151808452613344816020860160208601613308565b601f01601f19169290920160200192915050565b60208152600061213d602083018461332c565b60006020828403121561337d57600080fd5b5035919050565b6001600160a01b038116811461237e57600080fd5b600080604083850312156133ac57600080fd5b82356133b781613384565b946020939093013593505050565b6000806000606084860312156133da57600080fd5b83356133e581613384565b925060208401356133f581613384565b929592945050506040919091013590565b60006020828403121561341857600080fd5b813561213d81613384565b600081518084526020808501945080840160005b8381101561345357815187529582019590820190600101613437565b509495945050505050565b60208152600061213d6020830184613423565b634e487b7160e01b600052604160045260246000fd5b604051610100810167ffffffffffffffff811182821017156134ab576134ab613471565b60405290565b60405160c0810167ffffffffffffffff811182821017156134ab576134ab613471565b604051601f8201601f1916810167ffffffffffffffff811182821017156134fd576134fd613471565b604052919050565b6000806040838503121561351857600080fd5b823567ffffffffffffffff8082111561353057600080fd5b818501915085601f83011261354457600080fd5b813560208282111561355857613558613471565b8160051b92506135698184016134d4565b828152928401810192818101908985111561358357600080fd5b948201945b848610156135ad578535935061359d84613384565b8382529482019490820190613588565b9997909101359750505050505050565b60e0815260006135d060e083018a61332c565b82810360208401526135e2818a61332c565b6001600160a01b0398909816604084015250506060810194909452608084019290925260a0830152151560c09091015292915050565b602081526000825160e0602084015261363561010084018261332c565b90506020840151601f19848303016040850152613652828261332c565b91505060018060a01b03604085015116606084015260608401516080840152608084015160a084015260a084015160c084015260c0840151151560e08401528091505092915050565b801515811461237e57600080fd5b600080604083850312156136bc57600080fd5b82356136c781613384565b915060208301356136d78161369b565b809150509250929050565b600067ffffffffffffffff8211156136fc576136fc613471565b50601f01601f191660200190565b6000806000806080858703121561372057600080fd5b843561372b81613384565b9350602085013561373b81613384565b925060408501359150606085013567ffffffffffffffff81111561375e57600080fd5b8501601f8101871361376f57600080fd5b803561378261377d826136e2565b6134d4565b81815288602083850101111561379757600080fd5b8160208401602083013760006020838301015280935050505092959194509250565b60a0815260006137cc60a083018861332c565b82810360208401526137de818861332c565b6001600160a01b0396909616604084015250506060810192909252151560809091015292915050565b6000806040838503121561381a57600080fd5b823561382581613384565b915060208301356136d781613384565b600181811c9082168061384957607f821691505b60208210810361386957634e487b7160e01b600052602260045260246000fd5b50919050565b634e487b7160e01b600052603260045260246000fd5b634e487b7160e01b600052601160045260246000fd5b6000600182016138ad576138ad613885565b5060010190565b80516138bf8161369b565b919050565b6000602082840312156138d657600080fd5b815161213d8161369b565b60208082526022908201527f534254546f6b656e3a204e6f7420616e20617574686f72697a6564206973737560408201526132b960f11b606082015260800190565b60208082526025908201527f534254546f6b656e3a2043616e6e6f74206d696e7420746f207a65726f206164604082015264647265737360d81b606082015260800190565b60208082526022908201527f534254546f6b656e3a2053657373696f6e206973206e6f7420636c61696d61626040820152616c6560f01b606082015260800190565b60208082526032908201527f534254546f6b656e3a205573657220616c72656164792068617320746f6b656e60408201527110333937b6903a3434b99039b2b9b9b4b7b760711b606082015260800190565b80516138bf81613384565b600082601f830112613a1857600080fd5b8151613a2661377d826136e2565b818152846020838601011115613a3b57600080fd5b612d09826020830160208701613308565b600060208284031215613a5e57600080fd5b815167ffffffffffffffff80821115613a7657600080fd5b908301906101008286031215613a8b57600080fd5b613a93613487565b8251815260208301516020820152604083015160408201526060830151606082015260808301516080820152613acb60a084016139fc565b60a0820152613adc60c084016138b4565b60c082015260e083015182811115613af357600080fd5b613aff87828601613a07565b60e08301525095945050505050565b600060208284031215613b2057600080fd5b815167ffffffffffffffff80821115613b3857600080fd5b9083019060c08286031215613b4c57600080fd5b613b546134b1565b82518152602083015182811115613b6a57600080fd5b613b7687828601613a07565b602083015250604083015182811115613b8e57600080fd5b613b9a87828601613a07565b604083015250613bac606084016139fc565b606082015260808301516080820152613bc760a084016138b4565b60a082015295945050505050565b601f821115610f9957600081815260208120601f850160051c81016020861015613bfc5750805b601f850160051c820191505b81811015613c1b57828155600101613c08565b505050505050565b815167ffffffffffffffff811115613c3d57613c3d613471565b613c5181613c4b8454613835565b84613bd5565b602080601f831160018114613c865760008415613c6e5750858301515b600019600386901b1c1916600185901b178555613c1b565b600085815260208120601f198616915b82811015613cb557888601518255948401946001909101908401613c96565b5085821015613cd35787850151600019600388901b60f8161c191681555b5050505050600190811b01905550565b8581526001600160a01b038516602082015260a060408201819052600090613d0d9083018661332c565b8281036060840152613d1f818661332c565b9150508260808301529695505050505050565b6020808252601e908201527f534254546f6b656e3a20546f6b656e20646f6573206e6f742065786973740000604082015260600190565b60008060008060808587031215613d7f57600080fd5b505082516020840151604085015160609095015191969095509092509050565b8082018082111561059b5761059b613885565b606080825284519082018190526000906020906080840190828801845b82811015613df45781516001600160a01b031684529284019290840190600101613dcf565b50505083810382850152613e088187613423565b92505050826040830152949350505050565b60008351613e2c818460208801613308565b835190830190613e40818360208801613308565b01949350505050565b6001600160a01b0385811682528416602082015260408101839052608060608201819052600090613e7c9083018461332c565b9695505050505050565b600060208284031215613e9857600080fd5b815161213d816132d5565b8181038181111561059b5761059b613885565b634e487b7160e01b600052603160045260246000fdfed723ee64f1a389beca1041351bba4b2b1f6c668565b0ba5f4efb9b59a964bb80a26469706673582212209b1afb64ca8c7fd574a21ece5af11f6d4e26a74c4b5d6462760ab84c0d8a397064736f6c63430008140033",
  "devdoc": {
    "author": "SBT System POC",
    "details": "Soulbound Token (Non-transferable ERC721) implementation with template and session-based minting",
    "errors": {
      "ERC721EnumerableForbiddenBatchMint()": [
        {
          "details": "Batch mint is not allowed."
        }
      ],
      "ERC721IncorrectOwner(address,uint256,address)": [
        {
          "details": "Indicates an error related to the ownership over a particular token. Used in transfers.",
          "params": {
            "owner": "Address of the current owner of a token.",
            "sender": "Address whose tokens are being transferred.",
            "tokenId": "Identifier number of a token."
          }
        }
      ],
      "ERC721InsufficientApproval(address,uint256)": [
        {
          "details": "Indicates a failure with the `operator`s approval. Used in transfers.",
          "params": {
            "operator": "Address that may be allowed to operate on tokens without being their owner.",
            "tokenId": "Identifier number of a token."
          }
        }
      ],
      "ERC721InvalidApprover(address)": [
        {
          "details": "Indicates a failure with the `approver` of a token to be approved. Used in approvals.",
          "params": {
            "approver": "Address initiating an approval operation."
          }
        }
      ],
      "ERC721InvalidOperator(address)": [
        {
          "details": "Indicates a failure with the `operator` to be approved. Used in approvals.",
          "params": {
            "operator": "Address that may be allowed to operate on tokens without being their owner."
          }
        }
      ],
      "ERC721InvalidOwner(address)": [
        {
          "details": "Indicates that an address can't be an owner. For example, `address(0)` is a forbidden owner in EIP-20. Used in balance queries.",
          "params": {
            "owner": "Address of the current owner of a token."
          }
        }
      ],
      "ERC721InvalidReceiver(address)": [
        {
          "details": "Indicates a failure with the token `receiver`. Used in transfers.",
          "params": {
            "receiver": "Address to which tokens are being transferred."
          }
        }
      ],
      "ERC721InvalidSender(address)": [
        {
          "details": "Indicates a failure with the token `sender`. Used in transfers.",
          "params": {
            "sender": "Address whose tokens are being transferred."
          }
        }
      ],
      "ERC721NonexistentToken(uint256)": [
        {
          "details": "Indicates a `tokenId` whose `owner` is the zero address.",
          "params": {
            "tokenId": "Identifier number of a token."
          }
        }
      ],
      "ERC721OutOfBoundsIndex(address,uint256)": [
        {
          "details": "An `owner`'s token query was out of bounds for `index`. NOTE: The owner being `address(0)` indicates a global out of bounds index."
        }
      ],
      "EnforcedPause()": [
        {
          "details": "The operation failed because the contract is paused."
        }
      ],
      "ExpectedPause()": [
        {
          "details": "The operation failed because the contract is not paused."
        }
      ],
      "OwnableInvalidOwner(address)": [
        {
          "details": "The owner is not a valid owner account. (eg. `address(0)`)"
        }
      ],
      "OwnableUnauthorizedAccount(address)": [
        {
          "details": "The caller account is not authorized to perform an operation."
        }
      ],
      "ReentrancyGuardReentrantCall()": [
        {
          "details": "Unauthorized reentrant call."
        }
      ]
    },
    "events": {
      "Approval(address,address,uint256)": {
        "details": "Emitted when `owner` enables `approved` to manage the `tokenId` token."
      },
      "ApprovalForAll(address,address,bool)": {
        "details": "Emitted when `owner` enables or disables (`approved`) `operator` to manage all of its assets."
      },
      "Paused(address)": {
        "details": "Emitted when the pause is triggered by `account`."
      },
      "Transfer(address,address,uint256)": {
        "details": "Emitted when `tokenId` token is transferred from `from` to `to`."
      },
      "Unpaused(address)": {
        "details": "Emitted when the pause is lifted by `account`."
      }
    },
    "kind": "dev",
    "methods": {
      "approve(address,uint256)": {
        "details": "Override approve to prevent approvals"
      },
      "balanceOf(address)": {
        "details": "See {IERC721-balanceOf}."
      },
      "batchMintFromSession(address[],bytes32)": {
        "details": "Batch mint SBTs from a session to multiple recipients",
        "params": {
          "recipients": "Array of recipient addresses",
          "sessionId": "Session ID to mint from"
        }
      },
      "claimFromSession(bytes32)": {
        "details": "Self-service claim SBT from a session (users can mint directly)",
        "params": {
          "sessionId": "Session ID to claim from"
        }
      },
      "getApproved(uint256)": {
        "details": "Override getApproved to always return zero address"
      },
      "getNextTokenId()": {
        "details": "Get next token ID"
      },
      "getSBTBasicInfo(uint256)": {
        "details": "Get SBT basic info",
        "params": {
          "tokenId": "Token ID to query"
        },
        "returns": {
          "description": "Token description",
          "issuer": "Issuer address",
          "mintedAt": "Mint timestamp",
          "name": "Token name",
          "revoked": "Revocation status"
        }
      },
      "getSBTInfo(uint256)": {
        "details": "Get SBT information",
        "params": {
          "tokenId": "Token ID to query"
        },
        "returns": {
          "_0": "SBTData struct with all token information"
        }
      },
      "getUserSBTs(address)": {
        "details": "Get all token IDs owned by an address",
        "params": {
          "owner": "Address to query"
        },
        "returns": {
          "_0": "uint256[] Array of token IDs"
        }
      },
      "isApprovedForAll(address,address)": {
        "details": "Override isApprovedForAll to always return false"
      },
      "mintFromSession(address,bytes32)": {
        "details": "Mint SBT from a session (for QR code claims)",
        "params": {
          "sessionId": "Session ID to mint from",
          "to": "Address of the recipient"
        }
      },
      "mintFromTemplate(address,uint256)": {
        "details": "Mint SBT from a template (direct minting by issuer)",
        "params": {
          "templateId": "Template ID to mint from",
          "to": "Address of the recipient"
        }
      },
      "name()": {
        "details": "See {IERC721Metadata-name}."
      },
      "owner()": {
        "details": "Returns the address of the current owner."
      },
      "ownerOf(uint256)": {
        "details": "See {IERC721-ownerOf}."
      },
      "pause()": {
        "details": "Pause contract (only owner)"
      },
      "paused()": {
        "details": "Returns true if the contract is paused, and false otherwise."
      },
      "renounceOwnership()": {
        "details": "Leaves the contract without owner. It will not be possible to call `onlyOwner` functions. Can only be called by the current owner. NOTE: Renouncing ownership will leave the contract without an owner, thereby disabling any functionality that is only available to the owner."
      },
      "revokeSBT(uint256)": {
        "details": "Revoke an SBT (can only be done by issuer or owner)",
        "params": {
          "tokenId": "ID of the token to revoke"
        }
      },
      "safeTransferFrom(address,address,uint256)": {
        "details": "See {IERC721-safeTransferFrom}."
      },
      "safeTransferFrom(address,address,uint256,bytes)": {
        "details": "See {IERC721-safeTransferFrom}."
      },
      "setApprovalForAll(address,bool)": {
        "details": "Override setApprovalForAll to prevent approvals"
      },
      "symbol()": {
        "details": "See {IERC721Metadata-symbol}."
      },
      "tokenByIndex(uint256)": {
        "details": "See {IERC721Enumerable-tokenByIndex}."
      },
      "tokenOfOwnerByIndex(address,uint256)": {
        "details": "See {IERC721Enumerable-tokenOfOwnerByIndex}."
      },
      "tokenURI(uint256)": {
        "details": "See {IERC721Metadata-tokenURI}."
      },
      "totalSupply()": {
        "details": "See {IERC721Enumerable-totalSupply}."
      },
      "transferFrom(address,address,uint256)": {
        "details": "See {IERC721-transferFrom}."
      },
      "transferOwnership(address)": {
        "details": "Transfers ownership of the contract to a new account (`newOwner`). Can only be called by the current owner."
      },
      "unpause()": {
        "details": "Unpause contract (only owner)"
      }
    },
    "title": "SBTToken",
    "version": 1
  },
  "userdoc": {
    "kind": "user",
    "methods": {},
    "version": 1
  },
  "storageLayout": {
    "storage": [
      {
        "astId": 317,
        "contract": "contracts/SBTToken.sol:SBTToken",
        "label": "_name",
        "offset": 0,
        "slot": "0",
        "type": "t_string_storage"
      },
      {
        "astId": 319,
        "contract": "contracts/SBTToken.sol:SBTToken",
        "label": "_symbol",
        "offset": 0,
        "slot": "1",
        "type": "t_string_storage"
      },
      {
        "astId": 323,
        "contract": "contracts/SBTToken.sol:SBTToken",
        "label": "_owners",
        "offset": 0,
        "slot": "2",
        "type": "t_mapping(t_uint256,t_address)"
      },
      {
        "astId": 327,
        "contract": "contracts/SBTToken.sol:SBTToken",
        "label": "_balances",
        "offset": 0,
        "slot": "3",
        "type": "t_mapping(t_address,t_uint256)"
      },
      {
        "astId": 331,
        "contract": "contracts/SBTToken.sol:SBTToken",
        "label": "_tokenApprovals",
        "offset": 0,
        "slot": "4",
        "type": "t_mapping(t_uint256,t_address)"
      },
      {
        "astId": 337,
        "contract": "contracts/SBTToken.sol:SBTToken",
        "label": "_operatorApprovals",
        "offset": 0,
        "slot": "5",
        "type": "t_mapping(t_address,t_mapping(t_address,t_bool))"
      },
      {
        "astId": 1447,
        "contract": "contracts/SBTToken.sol:SBTToken",
        "label": "_ownedTokens",
        "offset": 0,
        "slot": "6",
        "type": "t_mapping(t_address,t_mapping(t_uint256,t_uint256))"
      },
      {
        "astId": 1451,
        "contract": "contracts/SBTToken.sol:SBTToken",
        "label": "_ownedTokensIndex",
        "offset": 0,
        "slot": "7",
        "type": "t_mapping(t_uint256,t_uint256)"
      },
      {
        "astId": 1454,
        "contract": "contracts/SBTToken.sol:SBTToken",
        "label": "_allTokens",
        "offset": 0,
        "slot": "8",
        "type": "t_array(t_uint256)dyn_storage"
      },
      {
        "astId": 1458,
        "contract": "contracts/SBTToken.sol:SBTToken",
        "label": "_allTokensIndex",
        "offset": 0,
        "slot": "9",
        "type": "t_mapping(t_uint256,t_uint256)"
      },
      {
        "astId": 8,
        "contract": "contracts/SBTToken.sol:SBTToken",
        "label": "_owner",
        "offset": 0,
        "slot": "10",
        "type": "t_address"
      },
      {
        "astId": 1911,
        "contract": "contracts/SBTToken.sol:SBTToken",
        "label": "_paused",
        "offset": 20,
        "slot": "10",
        "type": "t_bool"
      },
      {
        "astId": 2030,
        "contract": "contracts/SBTToken.sol:SBTToken",
        "label": "_status",
        "offset": 0,
        "slot": "11",
        "type": "t_uint256"
      },
      {
        "astId": 5145,
        "contract": "contracts/SBTToken.sol:SBTToken",
        "label": "_nextTokenId",
        "offset": 0,
        "slot": "12",
        "type": "t_uint256"
      },
      {
        "astId": 5150,
        "contract": "contracts/SBTToken.sol:SBTToken",
        "label": "sbtData",
        "offset": 0,
        "slot": "13",
        "type": "t_mapping(t_uint256,t_struct(SBTData)5133_storage)"
      },
      {
        "astId": 5156,
        "contract": "contracts/SBTToken.sol:SBTToken",
        "label": "hasTokenFromTemplate",
        "offset": 0,
        "slot": "14",
        "type": "t_mapping(t_address,t_mapping(t_uint256,t_bool))"
      },
      {
        "astId": 5162,
        "contract": "contracts/SBTToken.sol:SBTToken",
        "label": "hasTokenFromSession",
        "offset": 0,
        "slot": "15",
        "type": "t_mapping(t_address,t_mapping(t_bytes32,t_bool))"
      }
    ],
    "types": {
      "t_address": {
        "encoding": "inplace",
        "label": "address",
        "numberOfBytes": "20"
      },
      "t_array(t_uint256)dyn_storage": {
        "base": "t_uint256",
        "encoding": "dynamic_array",
        "label": "uint256[]",
        "numberOfBytes": "32"
      },
      "t_bool": {
        "encoding": "inplace",
        "label": "bool",
        "numberOfBytes": "1"
      },
      "t_bytes32": {
        "encoding": "inplace",
        "label": "bytes32",
        "numberOfBytes": "32"
      },
      "t_mapping(t_address,t_bool)": {
        "encoding": "mapping",
        "key": "t_address",
        "label": "mapping(address => bool)",
        "numberOfBytes": "32",
        "value": "t_bool"
      },
      "t_mapping(t_address,t_mapping(t_address,t_bool))": {
        "encoding": "mapping",
        "key": "t_address",
        "label": "mapping(address => mapping(address => bool))",
        "numberOfBytes": "32",
        "value": "t_mapping(t_address,t_bool)"
      },
      "t_mapping(t_address,t_mapping(t_bytes32,t_bool))": {
        "encoding": "mapping",
        "key": "t_address",
        "label": "mapping(address => mapping(bytes32 => bool))",
        "numberOfBytes": "32",
        "value": "t_mapping(t_bytes32,t_bool)"
      },
      "t_mapping(t_address,t_mapping(t_uint256,t_bool))": {
        "encoding": "mapping",
        "key": "t_address",
        "label": "mapping(address => mapping(uint256 => bool))",
        "numberOfBytes": "32",
        "value": "t_mapping(t_uint256,t_bool)"
      },
      "t_mapping(t_address,t_mapping(t_uint256,t_uint256))": {
        "encoding": "mapping",
        "key": "t_address",
        "label": "mapping(address => mapping(uint256 => uint256))",
        "numberOfBytes": "32",
        "value": "t_mapping(t_uint256,t_uint256)"
      },
      "t_mapping(t_address,t_uint256)": {
        "encoding": "mapping",
        "key": "t_address",
        "label": "mapping(address => uint256)",
        "numberOfBytes": "32",
        "value": "t_uint256"
      },
      "t_mapping(t_bytes32,t_bool)": {
        "encoding": "mapping",
        "key": "t_bytes32",
        "label": "mapping(bytes32 => bool)",
        "numberOfBytes": "32",
        "value": "t_bool"
      },
      "t_mapping(t_uint256,t_address)": {
        "encoding": "mapping",
        "key": "t_uint256",
        "label": "mapping(uint256 => address)",
        "numberOfBytes": "32",
        "value": "t_address"
      },
      "t_mapping(t_uint256,t_bool)": {
        "encoding": "mapping",
        "key": "t_uint256",
        "label": "mapping(uint256 => bool)",
        "numberOfBytes": "32",
        "value": "t_bool"
      },
      "t_mapping(t_uint256,t_struct(SBTData)5133_storage)": {
        "encoding": "mapping",
        "key": "t_uint256",
        "label": "mapping(uint256 => struct SBTToken.SBTData)",
        "numberOfBytes": "32",
        "value": "t_struct(SBTData)5133_storage"
      },
      "t_mapping(t_uint256,t_uint256)": {
        "encoding": "mapping",
        "key": "t_uint256",
        "label": "mapping(uint256 => uint256)",
        "numberOfBytes": "32",
        "value": "t_uint256"
      },
      "t_string_storage": {
        "encoding": "bytes",
        "label": "string",
        "numberOfBytes": "32"
      },
      "t_struct(SBTData)5133_storage": {
        "encoding": "inplace",
        "label": "struct SBTToken.SBTData",
        "members": [
          {
            "astId": 5120,
            "contract": "contracts/SBTToken.sol:SBTToken",
            "label": "name",
            "offset": 0,
            "slot": "0",
            "type": "t_string_storage"
          },
          {
            "astId": 5122,
            "contract": "contracts/SBTToken.sol:SBTToken",
            "label": "description",
            "offset": 0,
            "slot": "1",
            "type": "t_string_storage"
          },
          {
            "astId": 5124,
            "contract": "contracts/SBTToken.sol:SBTToken",
            "label": "issuer",
            "offset": 0,
            "slot": "2",
            "type": "t_address"
          },
          {
            "astId": 5126,
            "contract": "contracts/SBTToken.sol:SBTToken",
            "label": "mintedAt",
            "offset": 0,
            "slot": "3",
            "type": "t_uint256"
          },
          {
            "astId": 5128,
            "contract": "contracts/SBTToken.sol:SBTToken",
            "label": "templateId",
            "offset": 0,
            "slot": "4",
            "type": "t_uint256"
          },
          {
            "astId": 5130,
            "contract": "contracts/SBTToken.sol:SBTToken",
            "label": "sessionId",
            "offset": 0,
            "slot": "5",
            "type": "t_bytes32"
          },
          {
            "astId": 5132,
            "contract": "contracts/SBTToken.sol:SBTToken",
            "label": "revoked",
            "offset": 0,
            "slot": "6",
            "type": "t_bool"
          }
        ],
        "numberOfBytes": "224"
      },
      "t_uint256": {
        "encoding": "inplace",
        "label": "uint256",
        "numberOfBytes": "32"
      }
    }
  }
}